{
  "contractName": "ScoreStore",
  "abi": [
    {
      "constant": false,
      "inputs": [
        {
          "name": "name",
          "type": "string"
        },
        {
          "name": "score",
          "type": "int256"
        }
      ],
      "name": "AddPersonScore",
      "outputs": [],
      "payable": false,
      "stateMutability": "nonpayable",
      "type": "function"
    },
    {
      "constant": true,
      "inputs": [
        {
          "name": "name",
          "type": "string"
        }
      ],
      "name": "GetScore",
      "outputs": [
        {
          "name": "",
          "type": "int256"
        }
      ],
      "payable": false,
      "stateMutability": "view",
      "type": "function"
    }
  ],
  "bytecode": "0x608060405234801561001057600080fd5b506102df806100206000396000f3fe608060405234801561001057600080fd5b50600436106100365760003560e01c8063308d19641461003b578063fdb402b81461010a575b600080fd5b6100f46004803603602081101561005157600080fd5b810190808035906020019064010000000081111561006e57600080fd5b82018360208201111561008057600080fd5b803590602001918460018302840111640100000000831117156100a257600080fd5b91908080601f016020809104026020016040519081016040528093929190818152602001838380828437600081840152601f19601f8201169050808301925050505050505091929192905050506101cf565b6040518082815260200191505060405180910390f35b6101cd6004803603604081101561012057600080fd5b810190808035906020019064010000000081111561013d57600080fd5b82018360208201111561014f57600080fd5b8035906020019184600183028401116401000000008311171561017157600080fd5b91908080601f016020809104026020016040519081016040528093929190818152602001838380828437600081840152601f19601f82011690508083019250505050505050919291929080359060200190929190505050610241565b005b600080826040518082805190602001908083835b6020831061020657805182526020820191506020810190506020830392506101e3565b6001836020036101000a0380198251168184511680821785525050505050509050019150509081526020016040518091039020549050919050565b806000836040518082805190602001908083835b602083106102785780518252602082019150602081019050602083039250610255565b6001836020036101000a038019825116818451168082178552505050505050905001915050908152602001604051809103902081905550505056fea165627a7a7230582054a946849f75c7d01f974eea2711f68880fc20dfed00a7331b9be490bc9ba87a0029",
  "source": "pragma solidity >= 0.4.21 < 0.6.0;\n\ncontract ScoreStore {\n  mapping (string=> int) PersonScores;\n\n  function AddPersonScore(string memory name, int score) public {\n    PersonScores[name] = score;\n  }\n\n  function GetScore(string memory name) public view returns (int) {\n    return PersonScores[name];\n  }\n}",
  "sourcePath": "/Users/oluwatobiomotayo/Downloads/dev/code labs/blockchain/ScoreStore/contracts/ScoreStore.sol",
  "compiler": {
    "name": "solc",
    "version": "0.5.8+commit.23d335f2.Emscripten.clang"
  },
  "schemaVersion": "3.0.11",
  "updatedAt": "2019-07-19T13:21:29.631Z",
  "devdoc": {
    "methods": {}
  },
  "userdoc": {
    "methods": {}
  }
}